:100000001DC037C036C035C034C033C032C031C067
:1000100033C1FBC02EC02DC02CC02BC07DC429C055
:1000200028C027C026C0FEC4447573740028007021
:1000300063732F3238336D6C002F000011241FBE04
:10004000CFEFD2E0DEBFCDBF11E0A0E0B1E0E0E253
:10005000FEE002C005900D92A633B107D9F711E07A
:10006000A6E3B1E001C01D92A93AB107E1F731D48E
:10007000D5C6C6CF8FEF9FEFAFEFBFEF80930001E4
:1000800090930101A0930201B093030180930401B6
:1000900090930501A0930601B09307010895E091A4
:1000A0003601F0E0EE0FFF1FEE0FFF1FE050FF4F95
:1000B00060817181828193810895E091360181E0B0
:1000C0008E1B80933601F0E0EE0FFF1FEE0FFF1F37
:1000D000E050FF4F108211821282138208951F9305
:1000E000109136012AD12FEF8F3F9207B9F0E1E04E
:1000F000E11BF0E0EE0FFF1FEE0FFF1FE050FF4F80
:10010000A0E0B0E02081318142815381820F931FB2
:10011000A41FB51F80839183A283B3831F91089589
:100120008091370190913801089590933801809320
:100130003701089590E0880F991F835D9F4FFC0160
:1001400025913491CB01B90134C690E0880F991FF5
:10015000875C9F4FFC0125913491CB01B90129C6E1
:10016000DF93CF9300D000D0CDB7DEB719821A82CB
:100170001B821C82682F70E0660F771F660F771F47
:1001800060507040CE01019644E050E022D6698173
:100190007A818B819C810F900F900F900F90CF915F
:1001A000DF910895DF93CF9300D000D0CDB7DEB7B5
:1001B00049835A836B837C83682F70E0660F771FB7
:1001C000660F771F60507040CE01019644E050E00A
:1001D0000FD60F900F900F900F90CF91DF91089551
:1001E0002091A201E22FF0E0EE0FFF1FE158FE4F39
:1001F000918380832F5F213108F020E08091A1015D
:10020000281711F02093A201089578941F920F925D
:100210000FB60F9211242F933F934F935F936F93D9
:100220007F938F939F93AF93BF93EF93FF938091AF
:10023000880090918900825C964B9093890080930E
:1002400088008091810086FD03C080E090E002C0BC
:100250008EE399E4C5DFFF91EF91BF91AF919F913C
:100260008F917F916F915F914F913F912F910F905F
:100270000FBE0F901F90189578941F920F920FB693
:100280000F921124EF92FF920F931F932F933F939E
:100290004F935F936F937F938F939F93AF93BF938E
:1002A000CF93DF93EF93FF93C0918600D0918700A7
:1002B00050E4E52E8E01015C164B42E0F42E809155
:1002C0008100982F9E259093810086FD17C0809114
:1002D0007D0190917E0120917B0130917C01D09332
:1002E0007C01C0937B011093890000938800F6BACB
:1002F000821B930B75DF4C9B07C008C0D0937E0117
:10030000C0937D014C9B02C0B59BD9CFFF91EF916B
:10031000DF91CF91BF91AF919F918F917F916F911D
:100320005F914F913F912F911F910F91FF90EF900F
:100330000F900FBE0F901F9018958091A101909182
:10034000A201891779F0E82FF0E0EE0FFF1FE158C6
:10035000FE4F208131818F5F813108F080E08093F2
:10036000A10102C02FEF3FEFC90108951092800054
:10037000109289001092880083E080938100EFE65C
:10038000F0E08081826280830895DF93CF93CDB7C0
:10039000DEB76E970FB6F894DEBF0FBECDBFFE017D
:1003A0003196A8E1B1E09EE10D9001929150E1F704
:1003B000882351F4E62FF0E0EE0FFF1FE40FF11D4C
:1003C000EC0FFD1F818101C080E06E960FB6F8949E
:1003D000DEBF0FBECDBFCF91DF910895282F30E053
:1003E000220F331F220F331F285F3E4FC90108958C
:1003F000282F30E0220F331F220F331F245F3E4F80
:10040000C9010895282F30E0220F331F220F331F18
:10041000205F3E4FC9010895E82FF0E0EE0FFF1F67
:10042000EE0FFF1FEC5EFE4F608171818281938130
:1004300008959BB19F77882311F080E801C080E088
:10044000982B9BB9089580E0F4DF579A8AE18A954A
:10045000F1F781E0EEDF80E197E20197F1F708958F
:10046000FF920F931F93082F81E0011180E0E1DFDD
:1004700012E4812F8A95F1F7F9B0812F8A95F1F76F
:10048000802FD7DF812F8A95F1F789B11A95F1F77F
:1004900087FF0CC08F2D992787FD909580959095AB
:1004A000392F331F3327331F832F02C080E090E0A2
:1004B0001F910F91FF900895579881E0D1DF579ACF
:1004C00008950F931F93DF93CF930F92CDB7DEB7AD
:1004D000182F08E0812F80786983C2DF110F015047
:1004E00069810023B9F7862FBBDFE6DF0F90CF913C
:1004F000DF911F910F910895CF92DF92EF92FF92BB
:100500000F931F93DF93CF930F92CDB7DEB77B018D
:10051000082F192FCC24DD2417C0F80181918F01F9
:100520000894C11CD11CCE14DF0439F461E070E0E2
:10053000442329F060E070E002C061E070E049838C
:10054000C0DF4981882329F0CE14DF0430F381E035
:1005500001C080E00F90CF91DF911F910F91FF902C
:10056000EF90DF90CF900895AF92BF92CF92DF923D
:10057000EF92FF920F931F93DF93CF930F92CDB71C
:10058000DEB77B01082F192FAA24BB241EC00894B4
:10059000A11CB11C91E0AE14BF0409F490E057987F
:1005A00088E0C82EDD2481E099835ADFDD0CD82A4B
:1005B000CA949981CC20B9F7579AF801D1928F014A
:1005C000892F4EDF79DF882329F0AE14BF04F8F2BB
:1005D00081E001C080E00F90CF91DF911F910F91DA
:1005E000FF90EF90DF90CF90BF90AF90089580E0A4
:1005F00020DF88E28A95F1F785E561E062CF80939C
:1006000039010895EF92FF920F931F93DF93CF93D9
:1006100000D000D0CDB7DEB77C018A0180913901CE
:10062000898383E08A837B836C830DDFF894DFDF2B
:10063000CE01019664E070E040E05EDF882329F09F
:10064000C701B80191DF882311F4789402C078942F
:1006500081E00F900F900F900F90CF91DF911F913D
:100660000F91FF90EF9008950F931F93FC0140812D
:10067000318120E0828190E0822B932B25B134E000
:10068000232725B9413119F0433399F502C04DDDD7
:1006900030C08032910568F18097803251F54381F6
:1006A00050E060E070E0762F652F542F44270481DE
:1006B00010E020E030E0402B512B622B732B762F83
:1006C000652F542F4427058110E020E030E0402BB7
:1006D000512B622B732B762F652F542F44270681C5
:1006E00010E020E030E0402B512B622B732B892F40
:1006F00059DD1F910F910895DF92EF92FF920F93B2
:100700001F93DF93CF93CDB7DEB765970FB6F894FD
:10071000DEBF0FBECDBF8E010B5F1F4F80E1F80122
:1007200011928A95E9F7FCDC19821A821B821C82DD
:100730008130910559F08130910520F08730910585
:1007400091F40CC081E08D8361E090C0C80163EA40
:1007500071E046E050E034D366E088C060E170E0CC
:1007600080E090E02CC08032910508F467C080974B
:10077000D92E282F843209F441C0853238F48031D3
:10078000B9F08032D1F0882379F05AC08C32B1F1BF
:100790008D3220F4883209F053C013C08033A1F0A9
:1007A000843309F04DC01DC0892FB801C3DC03C0DC
:1007B000892FB801CADC60E159C0892FD1DCA801BA
:1007C0003CC0892F0BDE02C0892F12DEBC01CE0196
:1007D000019644E050E0F4D269817A818B819C815A
:1007E000EECF892F0FDEBC01CE01019644E050E030
:1007F000E7D269817A818B819C811CC02D8B4FDC73
:100800007B018C0169837A838B839C832D892C32B5
:1008100061F18D2D01DEA801970190D220E738E328
:1008200049E350E0A4D2F9012983FA834B835C8326
:10083000B901CA01AE014B5F5F4F77D264E016C0C9
:10084000022F10E00853104043E0169507954A9593
:10085000E1F78D2D602F40E098DD8D838D2D602F89
:1008600041E093DD8E8362E001C068E0CE01059631
:100870009DD065960FB6F894DEBF0FBECDBFCF9169
:10088000DF911F910F91FF90EF90DF900895229AD2
:100890002A98219A29982A9A81E037D280EAAFDEF5
:1008A00083EA91E06AEF70E046E050E0ABDE86E07C
:1008B00079D08CE793E099D084E393E091D061D034
:1008C000D9DB22D053DD2A9881E060E0FCD1299861
:1008D0000895DDDF78943BD031D0613325E772078E
:1008E00020E0820720E0920710F003D0E6DBF7DB80
:1008F000F2CF10923A0110923B0110923C011092FB
:100900003D0110923E01089583E886BD81E0809309
:100910006E0083E085BDEDCF78941F920F920FB6E5
:100920000F9211248F9383E886BD81E080933E016E
:100930008F910F900FBE0F901F90189560913A0104
:1009400070913B0180913C0190913D01089580910F
:100950003E018823A9F010923E0180913A019091C6
:100960003B01A0913C01B0913D010196A11DB11D3B
:1009700080933A0190933B01A0933C01B0933D01D9
:10098000089510925301E9EBF0E080818E7F80831F
:1009900080818D7F808380E28093B80085E480939E
:1009A000BC000895880F8093BA0008956131A0F4C7
:1009B00020915301243091F460936801DC01EBE64F
:1009C000F1E070E06E0F7F1F02C08D918193E617FA
:1009D000F707D9F780E0089581E0089582E008954F
:1009E0009093660180936501089590936A018093C6
:1009F00069010895882311F085EC01C085E8809392
:100A0000BC00089585ED8093BC008091BC0084FDFE
:100A1000FCCF10925301089585EC8093BC00109296
:100A2000530108951F920F920FB60F9211242F9326
:100A30003F934F935F936F937F938F939F93AF9366
:100A4000BF93EF93FF938091B90090E0887F9070FF
:100A50008036910509F4C2C081369105E4F58832EB
:100A6000910509F47EC089329105C4F48031910565
:100A700009F472C08131910544F4009709F40FC163
:100A80008830910509F00EC167C08831910509F4DD
:100A900068C08032910509F005C178C080349105A5
:100AA00009F48AC0813491054CF48033910509F42E
:100AB0006FC08833910509F0F5C06EC0803591058F
:100AC00009F46EC08835910509F47BC0883491051E
:100AD00009F0E8C0E6C08839910509F4D8C0893921
:100AE0009105ECF48837910509F478C089379105B0
:100AF0004CF48836910509F471C08037910509F0EE
:100B0000D1C06CC08838910509F4C1C08039910505
:100B100009F46AC08038910509F0C4C065C0803B03
:100B2000910509F48CC0813B91054CF4803A910504
:100B300009F46CC0883A910509F0B4C080C0803CCB
:100B4000910509F4A7C0883C910509F4A3C0883B2E
:100B5000910509F0A7C088C080913F018093BB0038
:100B600013C09091400180914101981708F099C0FD
:100B700080914001E82FF0E0EE5BFE4F9081909372
:100B8000BB008F5F8093400181E082C080E201C0A2
:100B900080E38093520185C088E3809352014DC069
:100BA000809140019091BB00E82FF0E0EE5BFE4F9A
:100BB00090838F5F8093400190914001809141012B
:100BC00063C0809140019091BB00E82FF0E0EE5BA4
:100BD000FE4F90838F5F8093400163C083E08093DA
:100BE000530110925401D0CF80915401803108F00C
:100BF0004EC0809154019091BB00E82FF0E0EB5A79
:100C0000FE4F90838F5F80935401BECF809154013B
:100C1000803130F4E0915401F0E0EB5AFE4F108245
:100C2000F1DE60915401E0916501F091660185E586
:100C300091E070E0099510925401EEDE33C084E03B
:100C4000809353011092670110926801E09169014D
:100C5000F0916A01099580916801882329F481E067
:100C60008093680110926B0180916701E82FF0E09A
:100C7000E559FE4F90819093BB008F5F8093670191
:100C80009091670180916801981708F47DCF80E00A
:100C9000B1DE08C081E0AEDE1092530103C01092B5
:100CA0005201B0DEFF91EF91BF91AF919F918F9173
:100CB0007F916F915F914F913F912F910F900FBE58
:100CC0000F901F90189590E048EC50E01BC06623F1
:100CD00011F4299A01C02A9A24EF31E0FA013197E0
:100CE000F1F721503040D1F7662311F4299801C063
:100CF0002A9820ED37E0FA013197F1F72150304082
:100D0000D1F79F5F981718F3089590E048EC50E0F2
:100D100009C020E137E2FA013197F1F72150304064
:100D2000D1F79F5F9817A8F30895FA019193DA011C
:100D300011968C931197718362830895FF27EE2794
:100D4000BB27AA2760FF04C0A20FB31FE41FF51F33
:100D5000220F331F441F551F9695879577956795EA
:100D600089F70097760771F7CF01BD010895A1E2D9
:100D70001A2EAA1BBB1BFD010DC0AA1FBB1FEE1F15
:100D8000FF1FA217B307E407F50720F0A21BB30B60
:100D9000E40BF50B661F771F881F991F1A9469F7DC
:100DA00060957095809590959B01AC01BD01CF0138
:100DB0000895FB01DC0105900D920020E1F70895F4
:100DC000FB01DC0102C001900D9241505040D8F768
:100DD0000895DC01862FE82FF999FECF1FBA05C0D0
:100DE000E1BDF89AE39500B40D924150C8F708951B
:100DF000DC01862F02C02D9104D04150E0F7089508
:100E0000262FF999FECF1FBA1FBA81BD20BD0FB69C
:100E1000F894FA9AF99A0FBE01960895F894FFCFC4
:100E2000FFFFFFFFFFFFFFFF295C8F3D00005042E7
:100E30006F12833AE803000001001C133827513A6F
:100E4000684D7E609173A287B29AC1ADCEC1DBD4EA
:060E5000E6E7F2FBFFFFE4
:00000001FF
