:100000001DC037C036C035C034C033C032C031C067
:1000100030C02FC02EC02DC02CC02BC02AC029C07C
:1000200028C027C026C0BAC3447573740028007066
:1000300063732F3238336D6C002F000011241FBE04
:10004000CFEFD2E0DEBFCDBF11E0A0E0B1E0E6E649
:10005000FBE002C005900D92AA32B107D9F711E07A
:10006000AAE2B1E001C01D92A737B107E1F741D381
:1000700078C5C6CFEF92FF920F931F93E0906D016A
:10008000F0906E0100916F01109170016091690113
:1000900070916A0180916B0190916C016E0D7F1DD2
:1000A000801F911F20E137E240E050E003D5C801F6
:1000B000B70100D5B901CA011F910F91FF90EF90D0
:1000C0000895189B14C08091690190916A01A091D4
:1000D0006B01B0916C010196A11DB11D8093690166
:1000E00090936A01A0936B01B0936C010895809185
:1000F0006D0190916E01A0916F01B0917001019618
:10010000A11DB11D80936D0190936E01A0936F01AD
:10011000B093700108951092690110926A011092D3
:100120006B0110926C0110926D0110926E01109291
:100130006F011092700108958EEF84B985B9EBCFED
:1001400080912A0190912B01089590932B01809327
:100150002A01089590E0880F991F835D9F4FFC014D
:1001600025913491CB01B901C7C490E0880F991F44
:10017000875C9F4FFC0125913491CB01B901BCC430
:10018000DF93CF9300D000D0CDB7DEB719821A82AB
:100190001B821C82682F70E0660F771F660F771F27
:1001A00060507040CE01019644E050E0B5D46981C2
:1001B0007A818B819C810F900F900F900F90CF913F
:1001C000DF910895DF93CF9300D000D0CDB7DEB795
:1001D00049835A836B837C83682F70E0660F771F97
:1001E000660F771F60507040CE01019644E050E0EA
:1001F000A2D40F900F900F900F90CF91DF910895A0
:10020000DF93CF93CDB7DEB76E970FB6F894DEBF0E
:100210000FBECDBFFE013196ACE0B1E09EE10D9086
:1002200001929150E1F7882351F4E62FF0E0EE0FB0
:10023000FF1FE40FF11DEC0FFD1F818101C080E065
:100240006E960FB6F894DEBF0FBECDBFCF91DF9193
:100250000895282F30E0220F331F220F331F205024
:100260003F4FC9010895282F30E0220F331F220F7E
:10027000331F2C5F3E4FC9010895282F30E0220F15
:10028000331F220F331F285F3E4FC90108959BB1D2
:100290009F77882311F080E801C080E0982B9BB9FC
:1002A000089580E0F4DF579A8AE18A95F1F781E0BA
:1002B000EEDF80E197E20197F1F70895FF920F9347
:1002C0001F93082F81E0011180E0E1DF12E4812F0C
:1002D0008A95F1F7F9B0812F8A95F1F7802FD7DF52
:1002E000812F8A95F1F789B11A95F1F787FF0CC034
:1002F0008F2D992787FD909580959095392F331FE5
:100300003327331F832F02C080E090E01F910F91AD
:10031000FF900895579881E0D1DF579A08950F9381
:100320001F93DF93CF930F92CDB7DEB7182F08E05E
:10033000812F80786983C2DF110F0150698100230A
:10034000B9F7862FBBDFE6DF0F90CF91DF911F91CA
:100350000F910895CF92DF92EF92FF920F931F9328
:10036000DF93CF930F92CDB7DEB77B01082F192F04
:10037000CC24DD2417C0F80181918F010894C11CA1
:10038000D11CCE14DF0439F461E070E0442329F07D
:1003900060E070E002C061E070E04983C0DF498145
:1003A000882329F0CE14DF0430F381E001C080E01F
:1003B0000F90CF91DF911F910F91FF90EF90DF9001
:1003C000CF900895AF92BF92CF92DF92EF92FF92BB
:1003D0000F931F93DF93CF930F92CDB7DEB77B01BF
:1003E000082F192FAA24BB241EC00894A11CB11CDD
:1003F00091E0AE14BF0409F490E0579888E0C82E4D
:10040000DD2481E099835ADFDD0CD82ACA949981D2
:10041000CC20B9F7579AF801D1928F01892F4EDF7E
:1004200079DF882329F0AE14BF04F8F281E001C01F
:1004300080E00F90CF91DF911F910F91FF90EF908F
:10044000DF90CF90BF90AF90089580E020DF88E2EA
:100450008A95F1F785E561E062CF80932C010895DC
:10046000EF92FF920F931F93DF93CF9300D000D0B2
:10047000CDB7DEB77C018A0180912C01898383E0AE
:100480008A837B836C830DDFF894DFDFCE010196D6
:1004900064E070E040E05EDF882329F0C701B80126
:1004A00091DF882311F4789402C0789481E00F9052
:1004B0000F900F900F90CF91DF911F910F91FF90B0
:1004C000EF9008950F931F93FC014081318120E04C
:1004D000828190E0822B932B25B134E0232725B92C
:1004E000413119F0433399F502C02FDE30C080321C
:1004F000910568F18097803251F5438150E060E0CA
:1005000070E0762F652F542F4427048110E020E0FF
:1005100030E0402B512B622B732B762F652F542FFD
:100520004427058110E020E030E0402B512B622B66
:10053000732B762F652F542F4427068110E020E07F
:1005400030E0402B512B622B732B892F3BDE1F9108
:100550000F910895FF920F931F93DF93CF93CDB721
:10056000DEB764970FB6F894DEBF0FBECDBF8E0125
:100570000B5F1F4F80E1F80111928A95E9F7E0DDEA
:1005800019821A821B821C828130910559F08130B8
:10059000910520F08730910591F40CC081E08D83A6
:1005A00061E078C0C80161E771E046E050E0ABD29D
:1005B00066E070C060E170E080E090E03BC08032B7
:1005C000910508F466C09C0120523040F32E822F22
:1005D0002432D9F1253238F42031A9F02032C1F08B
:1005E000222369F041C02C3281F12D3218F42832D7
:1005F000D9F511C0203391F02433B1F51DC0832FFC
:10060000B801A8DD03C0832FB801AFDD60E142C0AF
:10061000832FB6DD0FC0832F1CDE02C0832F23DEA5
:10062000BC01CE01019644E050E06DD269817A812F
:100630008B819C81A80116C0832F1FDEBC01CE01D7
:10064000019644E050E05FD206C014DD69837A83EE
:100650008B839C8360DD69817A818B819C81AE0173
:100660004B5F5F4F1ED215C0082F10E0085310409B
:1006700043E0169507954A95E1F78F2D602F40E0EE
:10068000BFDD8D838F2D602F41E0BADD8E8362E068
:1006900001C064E0CE01059645D064960FB6F8948B
:1006A000DEBF0FBECDBFCF91DF911F910F91FF90A5
:1006B0000895229A2A98219A29982A9A81E0E1D1CC
:1006C00080EACBDE81E791E06AEF70E046E050E03F
:1006D000C7DE86E023D08AEA92E043D082E692E049
:1006E0003BD00BD029DD2A9881E060E0A8D1299881
:1006F0000895DFDF7894E5DCFECF10924101E9EB4D
:10070000F0E080818E7F808380818D7F808380E296
:100710008093B80085E48093BC000895880F80938F
:10072000BA0008956131A0F420914101243091F480
:1007300060935601DC01E9E5F1E070E06E0F7F1F88
:1007400002C08D918193E617F707D9F780E00895ED
:1007500081E0089582E008959093540180935301BD
:10076000089590935801809357010895882311F0BC
:1007700085EC01C085E88093BC00089585ED8093E9
:10078000BC008091BC0084FDFCCF10924101089513
:1007900085EC8093BC001092410108951F920F9246
:1007A0000FB60F9211242F933F934F935F936F9344
:1007B0007F938F939F93AF93BF93EF93FF9380911A
:1007C000B90090E0887F90708036910509F4C2C02E
:1007D00081369105E4F58832910509F47EC08932AD
:1007E0009105C4F48031910509F472C081319105FD
:1007F00044F4009709F40FC18830910509F00EC147
:1008000067C08831910509F468C08032910509F00C
:1008100005C178C08034910509F48AC081349105FE
:100820004CF48033910509F46FC08833910509F0C9
:10083000F5C06EC08035910509F46EC0883591050C
:1008400009F47BC08834910509F0E8C0E6C0883916
:10085000910509F4D8C089399105ECF488379105E0
:1008600009F478C0893791054CF48836910509F46C
:1008700071C08037910509F0D1C06CC088389105EE
:1008800009F4C1C08039910509F46AC08038910526
:1008900009F0C4C065C0803B910509F48CC0813B60
:1008A00091054CF4803A910509F46CC0883A9105A1
:1008B00009F0B4C080C0803C910509F4A7C0883C11
:1008C000910509F4A3C0883B910509F0A7C088C031
:1008D00080912D018093BB0013C090912E018091D7
:1008E0002F01981708F099C080912E01E82FF0E0B1
:1008F000E05DFE4F90819093BB008F5F80932E014F
:1009000081E082C080E201C080E38093400185C025
:1009100088E3809340014DC080912E019091BB00EF
:10092000E82FF0E0E05DFE4F90838F5F80932E0113
:1009300090912E0180912F0163C080912E019091A2
:10094000BB00E82FF0E0E05DFE4F90838F5F809367
:100950002E0163C083E08093410110924201D0CF09
:1009600080914201803108F04EC080914201909107
:10097000BB00E82FF0E0ED5BFE4F90838F5F80932C
:100980004201BECF80914201803130F4E0914201BA
:10099000F0E0ED5BFE4F1082F1DE60914201E091EC
:1009A0005301F091540183E491E070E009951092B5
:1009B0004201EEDE33C084E0809341011092550184
:1009C00010925601E0915701F091580109958091DC
:1009D0005601882329F481E0809356011092590131
:1009E00080915501E82FF0E0E75AFE4F90819093F7
:1009F000BB008F5F80935501909155018091560106
:100A0000981708F47DCF80E0B1DE08C081E0AEDE4B
:100A10001092410103C010924001B0DEFF91EF91AE
:100A2000BF91AF919F918F917F916F915F914F9106
:100A30003F912F910F900FBE0F901F90189590E04F
:100A400048EC50E01BC0662311F4299A01C02A9A91
:100A500024EF31E0FA013197F1F721503040D1F71E
:100A6000662311F4299801C02A9820ED37E0FA0195
:100A70003197F1F721503040D1F79F5F981718F365
:100A8000089590E048EC50E009C020E137E2FA0117
:100A90003197F1F721503040D1F79F5F9817A8F3B5
:100AA0000895FA019193DA0111968C93119771834D
:100AB00062830895A1E21A2EAA1BBB1BFD010DC083
:100AC000AA1FBB1FEE1FFF1FA217B307E407F507FE
:100AD00020F0A21BB30BE40BF50B661F771F881FDA
:100AE000991F1A9469F760957095809590959B0170
:100AF000AC01BD01CF010895FB01DC0105900D9211
:100B00000020E1F70895FB01DC0102C001900D9285
:100B100041505040D8F70895DC01862FE82FF9990D
:100B2000FECF1FBA05C0E1BDF89AE39500B40D925F
:100B30004150C8F70895DC01862F02C02D9104D0E2
:100B40004150E0F70895262FF999FECF1FBA1FBA3A
:100B500081BD20BD0FB6F894FA9AF99A0FBE01969E
:060B60000895F894FFCF98
:100B6600295C8F3D000050420AD7233C01001C132C
:100B76003827513A684D7E609173A287B29AC1AD0B
:0A0B8600CEC1DBD4E6E7F2FBFFFF6F
:00000001FF
