:100000001DC037C036C035C034C033C032C031C067
:1000100030C02FC02EC0F6C32CC02BC02AC029C0B0
:1000200028C027C026C05AC44475737400280070C5
:1000300063732F3238336D6C002F000011241FBE04
:10004000CFEFD2E0DEBFCDBF11E0A0E0B1E0E6EA45
:10005000FCE002C005900D92AC32B107D9F711E077
:10006000ACE2B1E001C01D92AE38B107E1F7A2D316
:1000700018C6C6CFEF92FF920F931F9381E0909125
:100080003C01891B90E0880F991F880F991FFC0184
:10009000EC5CFE4FE080F18002811381845D9E4F15
:1000A000FC0160817181828193816E0D7F1D801FB3
:1000B000911F20E137E240E050E09CD5C801B70134
:1000C00099D579018A01DA01C9010197A109B1091C
:1000D0008F30F7E29F07F0E0AF07F0E0BF0778F45A
:1000E000CA01B90124E630E040E050E083D5220F98
:1000F000331F441F551FE21AF30A040B150B21E1AD
:10010000E21627E2F20620E0020720E0120730F0B4
:1001100080E1E82E87E2F82E012D112DB701C801EC
:100120001F910F91FF90EF900895E0913C01189B73
:1001300008C0F0E0EE0FFF1FEE0FFF1FE45DFE4F63
:1001400007C0F0E0EE0FFF1FEE0FFF1FEC5CFE4F4D
:1001500080819181A281B3810196A11DB11D80830F
:100160009183A283B383089581E090913C01891B20
:1001700080933C0190E0880F991F880F991FFC0124
:10018000E45DFE4F10821182128213828C5C9E4FBE
:10019000FC01108211821282138208958EEF84B9BD
:1001A00085B9E2CF80913D0190913E0108959093F1
:1001B0003E0180933D01089590E0880F991F835D73
:1001C0009F4FFC0125913491CB01B90135C590E0D9
:1001D000880F991F875C9F4FFC0125913491CB01BB
:1001E000B9012AC5DF93CF9300D000D0CDB7DEB7D9
:1001F00019821A821B821C82682F70E0660F771F9B
:10020000660F771F60507040CE01019644E050E0C9
:1002100023D569817A818B819C810F900F900F90FB
:100220000F90CF91DF910895DF93CF9300D000D04E
:10023000CDB7DEB749835A836B837C83682F70E028
:10024000660F771F660F771F60507040CE010196D2
:1002500044E050E010D50F900F900F900F90CF9189
:10026000DF910895DF93CF93CDB7DEB76E970FB6CA
:10027000F894DEBF0FBECDBFFE013196ADE0B1E018
:100280009EE10D9001929150E1F7882351F4E62F01
:10029000F0E0EE0FFF1FE40FF11DEC0FFD1F818159
:1002A00001C080E06E960FB6F894DEBF0FBECDBFE2
:1002B000CF91DF910895282F30E0220F331F220FB6
:1002C000331F2F5F3E4FC9010895282F30E0220FC2
:1002D000331F220F331F2B5F3E4FC9010895282F74
:1002E00030E0220F331F220F331F275F3E4FC9011B
:1002F00008959BB19F77882311F080E801C080E0CA
:10030000982B9BB9089580E0F4DF579A8AE18A958B
:10031000F1F781E0EEDF80E197E20197F1F70895D0
:10032000FF920F931F93082F81E0011180E0E1DF1E
:1003300012E4812F8A95F1F7F9B0812F8A95F1F7B0
:10034000802FD7DF812F8A95F1F789B11A95F1F7C0
:1003500087FF0CC08F2D992787FD909580959095EC
:10036000392F331F3327331F832F02C080E090E0E3
:100370001F910F91FF900895579881E0D1DF579A10
:1003800008950F931F93DF93CF930F92CDB7DEB7EE
:10039000182F08E0812F80786983C2DF110F015088
:1003A00069810023B9F7862FBBDFE6DF0F90CF917D
:1003B000DF911F910F910895CF92DF92EF92FF92FC
:1003C0000F931F93DF93CF930F92CDB7DEB77B01CF
:1003D000082F192FCC24DD2417C0F80181918F013B
:1003E0000894C11CD11CCE14DF0439F461E070E024
:1003F000442329F060E070E002C061E070E04983CE
:10040000C0DF4981882329F0CE14DF0430F381E076
:1004100001C080E00F90CF91DF911F910F91FF906D
:10042000EF90DF90CF900895AF92BF92CF92DF927E
:10043000EF92FF920F931F93DF93CF930F92CDB75D
:10044000DEB77B01082F192FAA24BB241EC00894F5
:10045000A11CB11C91E0AE14BF0409F490E05798C0
:1004600088E0C82EDD2481E099835ADFDD0CD82A8C
:10047000CA949981CC20B9F7579AF801D1928F018B
:10048000892F4EDF79DF882329F0AE14BF04F8F2FC
:1004900081E001C080E00F90CF91DF911F910F911B
:1004A000FF90EF90DF90CF90BF90AF90089580E0E5
:1004B00020DF88E28A95F1F785E561E062CF8093DD
:1004C0003F010895EF92FF920F931F93DF93CF9315
:1004D00000D000D0CDB7DEB77C018A0180913F010A
:1004E000898383E08A837B836C830DDFF894DFDF6D
:1004F000CE01019664E070E040E05EDF882329F0E1
:10050000C701B80191DF882311F4789402C0789470
:1005100081E00F900F900F900F90CF91DF911F917E
:100520000F91FF90EF9008950F931F93FC0140816E
:10053000318120E0828190E0822B932B25B134E041
:10054000232725B9413119F0433399F502C02FDE35
:1005500030C08032910568F18097803251F5438137
:1005600050E060E070E0762F652F542F442704811F
:1005700010E020E030E0402B512B622B732B762FC4
:10058000652F542F4427058110E020E030E0402BF8
:10059000512B622B732B762F652F542F4427068106
:1005A00010E020E030E0402B512B622B732B892F81
:1005B0003BDE1F910F910895FF920F931F93DF93DE
:1005C000CF93CDB7DEB768970FB6F894DEBF0FBEF6
:1005D000CDBF8E010B5F1F4F84E1F80111928A9508
:1005E000E9F7E0DD19821A821B821C8281309105B5
:1005F00059F08130910520F08730910591F40CC0BD
:1006000081E08D8361E0A6C0C80168E871E046E042
:1006100050E019D366E09EC060E270E080E090E0B8
:100620003EC08032910508F494C09C0120523040B5
:10063000F32E822F243209F445C0253238F42031BC
:10064000B9F02032D1F0222379F06EC02C32D1F1F2
:100650002D3220F4283209F067C012C0203399F0FF
:10066000243309F061C01DC0832FB801A5DD03C08C
:10067000832FB801ACDD60E16DC0832FB3DD0FC007
:10068000832F19DE02C0832F20DEBC01CE0101962C
:1006900044E050E0D8D269817A818B819C81A801A5
:1006A0000FC0832F1CDEBC01CE01019644E050E058
:1006B000CAD269817A818B819C81AE014B5F5F4F89
:1006C00090D247C08E010B5F1F4F61E070E080E069
:1006D00090E0A80186D261E070E080E090E0AE0199
:1006E000475F5F4F7ED2C6DC6F5F7F4F8F4F9F4F5C
:1006F000AE01435F5F4F75D261E070E080E090E053
:10070000AE014F5E5F4F6DD261E070E080E090E03F
:10071000AE014B5E5F4F65D269817A818B819C818E
:10072000A8015FD264E116C0082F10E00853104002
:1007300043E0169507954A95E1F78F2D602F40E02D
:1007400091DD8D838F2D602F41E08CDD8E8362E003
:1007500001C064E0CE01059685D068960FB6F89486
:10076000DEBF0FBECDBFCF91DF911F910F91FF90E4
:100770000895229A2A98219A29982A9A81E021D2CA
:1007800080EA9DDE88E891E06AEF70E046E050E0A4
:1007900099DE86E063D08CED92E083D084E992E02C
:1007A0007BD04BD0FBDC13D02A9881E060E0E7D10E
:1007B00029980895DEDF789412E0B7DC1DD08823F5
:1007C000E1F385B1812785B9CFDC12D0F6CF109245
:1007D000800084E080938100109282008EEE95E884
:1007E000909385008093840081E080936F0008954A
:1007F0008EE180930001089581E0909100019111B4
:1008000080E008951F920F920FB60F9211248F93DC
:100810009F938EEE95E8909385008093840080915D
:100820000001882319F08150809300019F918F91DE
:100830000F900FBE0F901F90189510925801E9EB82
:10084000F0E080818E7F808380818D7F808380E255
:100850008093B80085E48093BC000895880F80934E
:10086000BA0008956531A0F420915801243091F424
:1008700060937101DC01E4E7F1E070E06E0F7F1F2F
:1008800002C08D918193E617F707D9F780E00895AC
:1008900081E0089582E0089590936F0180936E0146
:1008A000089590937301809372010895882311F045
:1008B00085EC01C085E88093BC00089585ED8093A8
:1008C000BC008091BC0084FDFCCF109258010895BB
:1008D00085EC8093BC001092580108951F920F92EE
:1008E0000FB60F9211242F933F934F935F936F9303
:1008F0007F938F939F93AF93BF93EF93FF938091D9
:10090000B90090E0887F90708036910509F4C2C0EC
:1009100081369105E4F58832910509F47EC089326B
:100920009105C4F48031910509F472C081319105BB
:1009300044F4009709F40FC18830910509F00EC105
:1009400067C08831910509F468C08032910509F0CB
:1009500005C178C08034910509F48AC081349105BD
:100960004CF48033910509F46FC08833910509F088
:10097000F5C06EC08035910509F46EC088359105CB
:1009800009F47BC08834910509F0E8C0E6C08839D5
:10099000910509F4D8C089399105ECF4883791059F
:1009A00009F478C0893791054CF48836910509F42B
:1009B00071C08037910509F0D1C06CC088389105AD
:1009C00009F4C1C08039910509F46AC080389105E5
:1009D00009F0C4C065C0803B910509F48CC0813B1F
:1009E00091054CF4803A910509F46CC0883A910560
:1009F00009F0B4C080C0803C910509F4A7C0883CD0
:100A0000910509F4A3C0883B910509F0A7C088C0EF
:100A1000809140018093BB0013C09091410180916F
:100A20004201981708F099C080914101E82FF0E049
:100A3000ED5BFE4F90819093BB008F5F80934101EF
:100A400081E082C080E201C080E38093570185C0CD
:100A500088E3809357014DC0809141019091BB0084
:100A6000E82FF0E0ED5BFE4F90838F5F80934101B4
:100A7000909141018091420163C080914101909128
:100A8000BB00E82FF0E0ED5BFE4F90838F5F80931B
:100A9000410163C083E08093580110925901D0CF87
:100AA00080915901843108F04EC080915901909194
:100AB000BB00E82FF0E0E65AFE4F90838F5F8093F3
:100AC0005901BECF80915901843130F4E091590130
:100AD000F0E0E65AFE4F1082F1DE60915901E0919C
:100AE0006E01F0916F018AE591E070E00995109236
:100AF0005901EEDE33C084E08093580110927001FA
:100B000010927101E0917201F09173010995809149
:100B10007101882329F481E080937101109274019E
:100B200080917001E82FF0E0EC58FE4F9081909397
:100B3000BB008F5F80937001909170018091710173
:100B4000981708F47DCF80E0B1DE08C081E0AEDE0A
:100B50001092580103C010925701B0DEFF91EF913F
:100B6000BF91AF919F918F917F916F915F914F91C5
:100B70003F912F910F900FBE0F901F90189590E00E
:100B800048EC50E01BC0662311F4299A01C02A9A50
:100B900024EF31E0FA013197F1F721503040D1F7DD
:100BA000662311F4299801C02A9820ED37E0FA0154
:100BB0003197F1F721503040D1F79F5F981718F324
:100BC000089590E048EC50E009C020E137E2FA01D6
:100BD0003197F1F721503040D1F79F5F9817A8F374
:100BE0000895FA019193DA0111968C93119771830C
:100BF00062830895A1E21A2EAA1BBB1BFD010DC042
:100C0000AA1FBB1FEE1FFF1FA217B307E407F507BC
:100C100020F0A21BB30BE40BF50B661F771F881F98
:100C2000991F1A9469F760957095809590959B012E
:100C3000AC01BD01CF010895FB01DC0105900D92CF
:100C40000020E1F70895FB01DC0102C001900D9244
:100C500041505040D8F70895DC01862FE82FF999CC
:100C6000FECF1FBA05C0E1BDF89AE39500B40D921E
:100C70004150C8F70895DC01862F02C02D9104D0A1
:100C80004150E0F70895262FF999FECF1FBA1FBAF9
:100C900081BD20BD0FB6F894FA9AF99A0FBE01965D
:060CA0000895F894FFCF57
:100CA6001E295C8F3D000050420AD7233C00001CE1
:100CB600133827513A684D7E609173A287B29AC164
:0C0CC600ADCEC1DBD4E6E7F2FBFFFF007F
:00000001FF
